:100000000FC100003EC100003CC100003AC1000029
:1000100038C1000036C1000034C1000032C1000008
:1000200030C100002EC100002CC100002AC1000018
:1000300028C1000026C1000024C1000022C1000028
:1000400020C100001EC100001CC100001AC1000038
:1000500018C1000016C1000014C100000C94DD1D81
:1000600010C100000C941E1C0C94F51B0AC100006A
:1000700008C1000006C1000004C1000002C1000068
:1000800000C10000FEC00000FCC00000FAC000007B
:10009000F8C00000F6C00000F4C00000F2C000008C
:1000A000F0C00000EEC00000ECC00000EAC000009C
:1000B000E8C00000E6C00000E4C00000E2C00000AC
:1000C000E0C00000DEC00000DCC00000DAC00000BC
:1000D000D8C00000D6C00000D4C00000D2C00000CC
:1000E000D0C000003D105510CD10BF11DF11FE1122
:1000F0000612B4110F1D121D011D051D091D491DFC
:10010000161D1A1D201D241D281D2E1D321D361DD5
:10011000491D3C1D401D441D0000210024002700F6
:100120002A002D0030003300010100000401070106
:100130000A0100002200250028002B002E003100BB
:10014000340002010000050108010B010505050549
:10015000070508080808020202020A0A080804043F
:10016000040401010101010101010303030303036D
:100170000303040707070C0C0C0C0C0C0C0C0202FC
:10018000020206060606060606060B0B0B0B0B0BF9
:100190000B0B010210202008081020401020408086
:1001A000020102010804020101020408102040803B
:1001B00080402010080402018004020180402010C9
:1001C0000804020108040201010204081020408012
:1001D000010204081020408000000A0B02090C0DE7
:1001E0000E080703040100000000000000000000EA
:1001F00000000000000000000000000000000000FF
:1002000000000000121110000000000000000000BB
:10021000000000000000000000000000000049276E
:1002200011241FBECFEFD1E2DEBFCDBF00E00CBF77
:1002300013E0A0E0B2E0E8EBF1E500E00BBF02C0A4
:1002400007900D92A230B107D9F727E0A2E0B3E002
:1002500001C01D92AD35B207E1F711E0C0E1D1E078
:1002600000E006C021970109802FFE010E94A3280B
:10027000CF30D10780E00807A9F70E9452230C94E1
:10028000DA28BECEFC01448555854115510551F053
:10029000FB01248535852115310521F081E04217C8
:1002A000530709F080E00895DC011C96ED91FC9164
:1002B0001D97309739F08181811106C08081829528
:1002C0008170089580E0089581E00895DC01ED914A
:1002D000FC91008CF18DE02D199591E0892708950E
:1002E00080E3FB0180833296842F82958F7090E1AA
:1002F000899F401911244A3014F4405D01C0495CC3
:100300004293482F8111F0CF0895EF92FF920F93FF
:100310001F93CF93DF93EC01E881F9810688F78979
:10032000E02D19958823B9F08C859D857C012FEFF0
:10033000E21AF20A8C010A5F1F4FC0E0D0E0F70119
:1003400081917F010E947F20C80FD91FE016F1061E
:10035000B1F7CE0102C080E090E0DF91CF911F9114
:100360000F91FF90EF9008956F927F928F929F92DE
:10037000AF92BF92CF92DF92EF92FF920F931F93B3
:10038000CF93DF937C015B01EA01DC01ED91FC91ED
:100390000688F789E02D1995882309F46FC0D701E5
:1003A0001C96ED91FC911D978181882309F469C009
:1003B0006E010EE1BE016C197D096A0D7B1DD7012E
:1003C0001C96ED91FC911D97A60181810E947122DE
:1003D0004C01F70164847584D30111961C91812F1F
:1003E0000E947F208816990681F5C818D908C30194
:1003F00001960E94D219F701A485B5858C91282F0A
:1004000030E02F70029FF001039FF00D1124EB5F8D
:10041000FA4F918D94FF05C0982F907611F4806863
:100420008C93D7011C96ED91FC911D9781818111D0
:100430001FC0808186FF05C010821D961C921E92EF
:100440001C97CE018C199D091EC0B5E01B9FF001C1
:100450001124E855FC4F80819181880D991D91836D
:10046000808382819381881999099383828304C050
:10047000C114D10409F09ECFCE0105C08FEF9FEFCC
:1004800002C080E090E0DF91CF911F910F91FF902B
:10049000EF90DF90CF90BF90AF909F908F907F9024
:1004A0006F900895CF93DF93EC010E94B916EC850D
:1004B000FD85309739F0808186FF06C081E091810B
:1004C000911103C080E001C081E0DF91CF910895D8
:1004D000EF92FF920F931F93CF93DF938C017B01D9
:1004E000EA01DC01ED91FC910288F389E02D199578
:1004F000F701828190E0982F88272381822B98270B
:1005000089279827248130E0322F22274581242B08
:100510003227232732277C2F6D2F40919D03509146
:100520009E034F5F5F4F4115FDE75F0710F040E00E
:1005300050E1D42FC52FE5E0F5E0A0E0A43059F05C
:10054000B18DBB2329F0E480F580EC16FD0649F35C
:10055000AF5F7E96F3CF50939E0340939D0310921E
:10056000A70340E0C0E0D0E0AEE14430C1F0A49F7A
:10057000F0011124EB5FFA4F518D511104C04093EB
:10058000A703EF010EC0573031F4209729F0B28D48
:100590005A8D5B1708F0FE014F5FEF01E6CF4093E5
:1005A000A703209719F480E090E040C042E0498F13
:1005B000409108034C87409109034D8740910A03FD
:1005C0004E8740910B034F8740E052E05B8B4A8B94
:1005D0005D8B4C8B41E050E0598B488B1B8E4A8FD2
:1005E00043E0488F1E8A40E14F8B40919D0350911C
:1005F0009E035427452754275D834C837F836E8356
:10060000998388833B832A83898D8F7061F20E944E
:10061000B916898D8F708330B9F78C8D9D8DD80177
:100620001D969C938E931C9781E090E0DF91CF9173
:100630001F910F91FF90EF900895CF93DF93EC01FE
:100640008C859D85009781F0FC012081222361F03B
:1006500001960E94AB19EC85FD85908196FF02C042
:10066000108202C0906290831D861C86DF91CF911C
:100670000C94B9162F923F924F925F926F927F9295
:100680008F929F92AF92BF92DF92EF92FF920F9361
:100690001F93CF93DF93CDB7DEB7E6970FB6F894ED
:1006A000DEBF0FBECDBF7C011A012B0139010E94B4
:1006B000D11D4B015C018701095B1F4FC8010E94DE
:1006C000061918161906A4F00E94D11DDC01CB01F1
:1006D00088199909AA09BB09281639064A065B0632
:1006E000E8F062E370E080E090E00E94991DE6CFC0
:1006F00042E250E0BE016F5F7F4FC8010E94B41814
:100700008981823029F4C8017AD78334910541F078
:10071000D12CC8010E94990B8D2D58C18FEF56C165
:100720006D817E818F8198850E94AB284B015C0191
:10073000F301608371838283938346E050E0B701C5
:10074000685F7F4FCE014D960E94B628892B99F4A1
:10075000F70180819181A281B38188169906AA064A
:10076000BB0648F084819581A681B78188159905DB
:10077000AA05BB0520F4C801DCD780E027C1898920
:100780009A89AB89BC89F70186879787A08BB18B43
:100790008EECA82EB12CC8010E943813F1E0AF1ADC
:1007A000B108C9F7D12CC701829698AB8FA7F70182
:1007B000B696FAABE9AB08969CAB8BAB3C974F0176
:1007C00048979EAB8DAB170196E1290E311C37017E
:1007D000EEE16E0E711CC8010E94FE181816190673
:1007E0000CF097CFC8010E9438138333910509F4A8
:1007F000C7C0F4F481309105B9F11CF4892B59F389
:10080000D9C083309105C1F1069709F0D3C0C80162
:100810000E9438135C0144E050E0B301C8010E941B
:10082000B418412C512CBB2494E0A91AB1083FC044
:100830008A33910509F478C03CF48533910561F061
:10084000C69709F43FC0B6C08B33910509F482C046
:100850008F3F910501F2AEC0C8010E943813C80154
:100860000E943813D82EB7CFC8010E94381344E035
:1008700050E06DA97EA936C0C8010E9438135C0102
:1008800044E050E0B101C8010E94B418412C512C41
:10089000BB24F4E0AF1AB1084A145B040CF09BCF00
:1008A000C8010E9438138FEF481A580AF5CF4A142E
:1008B0005B040CF090CFC8010E943813EFEF4E1A82
:1008C0005E0AF5CFC8010E943813B82EF701828D59
:1008D000938DA48DB58D892B8A2B8B2B39F444E015
:1008E00050E0B401C8010E94B41875CFB801CE0120
:1008F000899695D6B401CE0183960E94E51B4DA141
:100900005EA16FA178A58BA59CA5ADA5BEA5481736
:1009100059076A077B0719F3BB2009F45CCFC801AC
:100920000E943813BA94F8CFC8010E94381344E0EB
:1009300050E069A97AA9C8010E94B418F70166A11C
:1009400077A180A591A50E94AB2866A377A380A775
:1009500091A741CFC8010E94381344E050E06BA931
:100960007CA9C8010E94B418F70162A573A584A5EB
:1009700095A50E94AB2862A773A784A795A72BCF44
:10098000C8010E94381344E050E06FA578A9C8015F
:100990000E94B418F70162A173A184A195A10E94DD
:1009A000AB2862A373A384A395A366A777A780ABA4
:1009B00091AB11CFC8010E943813B82EBB2009F4A7
:1009C0000ACFC8010E943813BA94F8CFE6960FB642
:1009D000F894DEBF0FBECDBFDF91CF911F910F9175
:1009E000FF90EF90DF90BF90AF909F908F907F909F
:1009F0006F905F904F903F902F9008957F928F92CD
:100A00009F92AF92BF92CF92DF92EF92FF920F939D
:100A10001F93CF93DF93CDB7DEB7A6970FB6F894A9
:100A2000DEBF0FBECDBF8C01762E942E852E20E228
:100A3000B22ECE0101967C01FC012B2D11922A953C
:100A4000E9F78DE892E09AA389A38FEF8BA38CA39B
:100A50008DA38EA3680187E4C80ED11C43E450E047
:100A6000BE016F5D7F4FC6010E941219019609F405
:100A7000BCC081E089838A8386E0A82EAB821C8279
:100A8000F80164817581868197810E94AB286D830E
:100A90007E838F83988789869A8680E890E09C87FA
:100AA0008B874CE150E0B701C6010E94F613F701B5
:100AB0002B2D11922A95E9F7480188E0880E911CA8
:100AC000F401D70101900D92AA94E1F740E150E0C2
:100AD000B701C6010E94F613F7011192BA94E9F723
:100AE00096E0A92EB12C40E250E0B701C6010E9469
:100AF000F613F1E0AF1AB108B1F783E6898392E803
:100B00009A8393E59B838C8385E38D8381E08E8339
:100B10007F829DE3988797E099878A8786E0F40132
:100B2000DE011B9601900D928A95E1F78CE0898B8E
:100B30008A8B65E972E0CE0143960E94D328F801C2
:100B40004385BE01675E7F4FC801CADBF80144855B
:100B5000BE01655E7F4FC801C3DBF8014585BE015C
:100B6000635E7F4FC801BCDB4EE150E0B701C601B8
:100B70000E94F613F3E07F121EC082E3898384E0B3
:100B80008A83F80196859B8397859C8390899D83B2
:100B900091899E8396E39F838887828D8987838D41
:100BA0008A87848D8B87858D8C874CE050E0B701D8
:100BB000C6010E94F61387E3898386E08A8391E069
:100BC0009B8393E09C838D838FE08E838AE38F8366
:100BD0008BE388878FEF898749E050E0B701C60132
:100BE0000E94F613C6010E940E14A6960FB6F89442
:100BF000DEBF0FBECDBFDF91CF911F910F91FF9050
:100C0000EF90DF90CF90BF90AF909F908F907F90AC
:100C100008958F929F92AF92BF92CF92DF92EF9200
:100C2000FF920F931F93CF938C015B017A016A01AE
:100C30004C0187E0880E911C0E94B9160115110520
:100C400009F452C0F8018081807609F04DC0F401AA
:100C5000C1E08191811102C0C15004C0CF5FC53095
:100C6000C1F7C4E0F801EC0FF11D868181110DC0C0
:100C700080E092E00E945E1FF801EC0FF11D868378
:100C80008823D1F2F80114861386A7014C195D0957
:100C90004A0D5B1DF801638574859601EC0FF11D0B
:100CA00086810E940120C81AD90AF801238534855B
:100CB000820F931F948783871C141D042CF4C43067
:100CC00009F4BACFCF5FD4CF0E94D11DDC01CB0194
:100CD0000A96A11DB11DF80185879687A787B08B5D
:100CE000C7018C199D0902C08FEF9FEFCF911F9113
:100CF0000F91FF90EF90DF90CF90BF90AF909F90BB
:100D00008F900895FC018485958583CFCF93DF93E1
:100D10001F92CDB7DEB7698341E050E0BE016F5F3F
:100D20007F4FFC018485958574DF0F90DF91CF9113
:100D300008952F923F924F925F926F927F928F927F
:100D40009F92AF92BF92CF92DF92EF92FF920F935A
:100D50001F93CF93DF93CDB7DEB765970FB6F894A7
:100D6000DEBF0FBECDBF7C016B013A01FB01DB0191
:100D70008D91882331F08E32D9F380538A30C0F3BD
:100D800034C020E030E080E090E05AE0419144231C
:100D9000F9F0843091054CF54E3269F42F3F31055E
:100DA00009F01CF5D301A80FB91F12962C930196D8
:100DB00020E030E0EBCF529FB001539F700D112423
:100DC000242F440F330B20533109260F371FDECF5A
:100DD0002F3F310509F04CF48430910534F4F301D0
:100DE000E80FF91F228381E021C0F701428153817E
:100DF000648175818091110790911207A09113076A
:100E0000B0911407481759076A077B0709F4FAC11C
:100E10000E94D11D8701085F1F4F6F7077277C5F8D
:100E2000C8010E943E14813019F080E090E0ECC1CE
:100E30008DE892E09A838983F70182819381A4816E
:100E4000B5818B839C83AD83BE8345E350E0BE01B7
:100E50006F5F7F4FC8010E941219892B19F4C12CB2
:100E6000D12CCBC10E94D11DF7017783668342E06C
:100E700050E0B7016A5F7F4FC8010E94F61381E01E
:100E800090E09A83898342E050E0BE016F5F7F4F1C
:100E9000C8010E94F61380E091E09A83898342E0C2
:100EA00050E0BE016F5F7F4FC8010E94F6131A82A7
:100EB000198242E050E0BE016F5F7F4FC8010E947F
:100EC000F61342E050E0BE016F5F7F4FC8010E9401
:100ED000F61342E050E0BE016F5F7F4FC8010E94F1
:100EE000F6135601F5018081882311F1F6015F01A7
:100EF0008191811115C045018C189D0818141904A1
:100F000094F48D8641E050E0BE01635F7F4FC801DD
:100F10000E94F613A401B601C8010E94F61303C093
:100F20008E3229F7E8CF6501FFEFCF1ADF0ADACF5B
:100F30001D8641E050E0BE01635F7F4FC8010E9403
:100F4000F613C12CDD24D394DA82C98242E050E04A
:100F5000BE016F5F7F4FC8010E94F613DA82C9821B
:100F600042E050E0BE016F5F7F4FC8010E94F61360
:100F7000C8010E940E14892B09F471CF83E0A82EBA
:100F8000B12CF2E06F0E711C0E94D11D1B012C01CF
:100F9000C8010E94061918161906ACF00E94D11D4E
:100FA000DC01CB0182199309A409B5098938934161
:100FB000A105B10508F00FC162E370E080E090E0A8
:100FC0000E94991DE5CFF70122803380448055802F
:100FD000B801CE01019623D38B819C81AD81BE8166
:100FE000281639064A065B0609F0F8C0C80107D37F
:100FF000C59709F0F3C0C8010E94FE180C970CF4C5
:10100000F0C04CE050E0BE016F5F7F4FC8010E940E
:10101000B4188B819C819827892798279A8B898B74
:10102000F7014681578129813A814217530711F40C
:1010300097FD05C0C8017DD32CEF3FEFD4C08F7062
:101040009270892B29F0C80174D32BEF3FEFCBC0EE
:10105000CF80D884DC24CD24DC24C114D10429F42D
:10106000C80167D32AEF3FEFBEC0812C912C8D8140
:101070009E819827892798278816990640F541E090
:1010800050E0BE01635F7F4FC8010E94B4188D8598
:10109000811113C08D858111F2CFC8010E943813D0
:1010A000C8010E943813C8010E943813C8010E9469
:1010B0003813FFEF8F1A9F0ADACF8D859FEF980FB5
:1010C0009D87882339F3C8010E943813F6CF812CFD
:1010D000912C41E050E0BE016D5E7F4FC8010E943F
:1010E000B4188B89982F907C61F4882371F08B89D8
:1010F0009FEF980F9B8B882341F0C8010E94381303
:10110000F6CFC8010E9438131B8A8B898111E1CF69
:1011100042E050E0BE01615F7F4FC8010E94B418F9
:1011200042E050E0BE01635F7F4FC8010E94B418E7
:10113000C8010E943813C8010E943813C8010E94D8
:101140003813C8010E94381342E050E0BE016F5EC0
:101150007F4FC8010E94B4188F85988981159140EE
:10116000E9F42D853E8532272327322721303105AA
:10117000A9F489899A898115944029F0C801D9D2A6
:1011800027EF3FEF30C044E050E0B301C8012C8BA3
:101190003D8B0E94B4182C893D8925C0412C512CCF
:1011A00089899A899827892798274816590638F4F3
:1011B000C8010E9438138FEF481A580AF1CFEFEF99
:1011C0008E1A9E0A8C149D0409F083CFC801B1D2F7
:1011D00026EF3FEF08C02FEF3FEF05C02EEF3FEFA8
:1011E00002C02DEF3FEF6901F1E0AF1AB10829F01D
:1011F0002FEFC216D20609F4C7CEC8010E946314AD
:10120000C60102C08EEF9FEF65960FB6F894DEBF61
:101210000FBECDBFDF91CF911F910F91FF90EF9047
:10122000DF90CF90BF90AF909F908F907F906F9006
:101230005F904F903F902F900895CF92DF92EF9262
:10124000FF920F931F93CF93DF93CDB7DEB7AA978B
:101250000FB6F894DEBF0FBECDBF7C016A010DE86A
:1012600012E01A8309831B821C821D821E82CE011A
:10127000099669A77AA70E94C6141E8F0D8F1F8E2C
:1012800018A219A21AA280910B0790910C07A091A5
:101290000D07B0910E078B839C83AD83BE831886A8
:1012A0001F82AE01435E5F4F69A57AA5CE0101960C
:1012B00040DD81309105B1F4D701ED91FC910484BA
:1012C000F585E02D1CA30BA38F8D98A1A9A1BAA130
:1012D0008DA39EA3AFA3B8A7A601BE016D5D7F4FEE
:1012E000C7011995AA960FB6F894DEBF0FBECDBF01
:1012F000DF91CF911F910F91FF90EF90DF90CF90F2
:1013000008952F923F924F925F926F927F928F92A9
:101310009F92AF92BF92CF92DF92EF92FF920F9384
:101320001F93CF93DF93CDB7DEB727970FB6F8940F
:10133000DEBF0FBECDBF8C010E943A282FEC37E0F4
:1013400040E050E00E944628DC01CB010196A11D3F
:10135000B11DF80184839583A683B783808391832D
:10136000A283B3835801F7E4AF0EB11CC5010E94FC
:10137000631464E470E0C5010E943E14882309F4FC
:1013800023C10E94D11D2B013C011F821E821D82A0
:10139000480186E4880E911C18019EE3290E311C39
:1013A00048EEC42E43E0D42EE12CF12CD4018C91D4
:1013B000833009F4F7C081111EC0F8018481958142
:1013C000A681B7810196A11DB11D84839583A68353
:1013D000B7830E94D11D6419750986099709A70171
:1013E00096010E947228A90161E0C80107DB81E033
:1013F000D4018C93B9C08430F1F4F80184819581D3
:10140000A681B7810196A11DB11D84839583A68312
:10141000B7830E94D11D6419750986099709A70130
:1014200096010E947228A90163E0C801E7DAE2E0B0
:10143000D401EC9399C0813049F5D1014D915D9172
:101440006D917C919E012F5F3F4FC80113D98D8311
:10145000823009F089C089819A81AB81BC81F80111
:1014600084839583A683B7830E94D11D641975096F
:1014700086099709A70196010E947228A90163E0D5
:10148000C801BCDAED81D401EC9374C0823009F05C
:101490006BC0D1014D915D916D917C919E012F5F4B
:1014A0003F4FC801E7D88D83853009F057C083E0EE
:1014B000F4018083F80182A193A1A4A1B5A1892B95
:1014C0008A2B8B2B41F484E893E0A0E0B0E082A368
:1014D00093A3A4A3B5A3F80186A197A1A0A5B1A544
:1014E000892B8A2B8B2B61F482A193A1A4A1B5A196
:1014F000B695A7959795879586A397A3A0A7B1A71B
:10150000D8019A964D915D916D917C919D9796969B
:101510008D919D910D90BC91A02D452B462B472B75
:1015200059F4AC01BD01440F551F661F771FF80128
:1015300042A753A764A775A7F80186A797A7A0ABF2
:10154000B1AB82A593A5A4A5B5A582AB93ABA4AB83
:10155000B5AB81E090E09F838E830CC09D81963077
:1015600019F4D4011C9206C0BD81BF3F19F4F401E7
:1015700010821D828E819F81019709F417CF0E94EE
:10158000D11DDC01CB0184199509A609B709F80121
:1015900022AD33AD44AD55AD281739074A075B0777
:1015A00008F004CFC5010E946314F801848195817D
:1015B000A681B7810196A11DB11D84839583A68361
:1015C000B7838E819F8102C080E090E027960FB69E
:1015D000F894DEBF0FBECDBFDF91CF911F910F9169
:1015E000FF90EF90DF90CF90BF90AF909F908F9043
:1015F0007F906F905F904F903F902F900895DC0107
:101600001C96ED91FC911D97309731F08681978162
:10161000982789279827089580E090E00895CF9330
:10162000DF93FC01EB01AC85BD85109791F012961C
:101630009C91129713968C9113973C9111962C9133
:101640004DE852E051834083328323839483858322
:1016500008C08DE892E09183808312821382148205
:101660001582CF01DF91CF910895EF92FF920F93F2
:101670001F93CF93DF93E0910603F0910703C18599
:10168000D285209709F44EC0E0900C03E1FE2FC0F4
:101690008A8181112CC0809116069091170697833C
:1016A000868380910E0690910F06918380838091AE
:1016B0001006909111069383828380911A0690916F
:1016C0001B0698278927982708970E945E1FF82EE7
:1016D0008A83882361F00E947F208C012AE230E017
:1016E0004091030360E070E08F2D0E94A220E3FE92
:1016F00019C08D818823B1F08C81809305038AE223
:1017000080930203688179816A5271098091EA05A8
:101710009091EB05DF91CF911F910F91FF90EF908A
:101720000C943322DF91CF911F910F91FF90EF9096
:101730000895CF93DF93EC010E94B91689890E9426
:10174000271E198ADF91CF9108950F931F93CF938E
:10175000DF931F92CDB7DEB78C010E94B916F80156
:101760008189882361F041E050E0BE016F5F7F4FC7
:101770000E947122019719F4898190E002C08FEFD5
:101780009FEF0F90DF91CF911F910F910895EF92EE
:10179000FF921F93CF93DF93C0910D03D0910E035F
:1017A000843009F4CBC12AE236E03093EB05209374
:1017B000EA053093E5052093E405833059F4898DDB
:1017C0008F70833009F0BBC688899989892B09F00D
:1017D000B6C67EC0823009F07FC080910B038F5F58
:1017E00080930B03811113C080910A038F5F809354
:1017F0000A0381110CC0809109038F5F8093090354
:10180000811105C0809108038F5F809308031092B7
:10181000E9051092E8051092E7051092E605898D1A
:10182000982F9D7F953041F48A8D8F5F8A8F8837FE
:1018300009F085C6198E83C6882309F480C62889D5
:101840003989232B09F440C09A8D2FEF290F2A8F55
:10185000911175C69B8D983031F02FEF280F2230F3
:1018600048F4953039F4198E80E880930C030E9477
:10187000EB1921C5953038F423E0092E01C0220F61
:101880000A94EAF701C020E32A8F9F5F9B8F8F7035
:101890008330A1F048F4813009F437C3823009F075
:1018A0004EC61092230634C3863009F4A0C4883093
:1018B00009F49DC4843009F042C699C484E0809341
:1018C0000C030E94EB1929C58F70833009F037C6CD
:1018D00088E080930C03E4C4853019F5E091060399
:1018E000F091070384819581892B09F428C6109211
:1018F0000E0310920D038EE196E09093EB0580931A
:10190000EA059093E5058093E4051092E7051092AF
:10191000E6051092E9051092E80588E080930C0333
:101920000CC180910206853409F009C6C0910406F5
:10193000D0E0DC2FCC2780910506C80FD11D809107
:10194000E8059091E9058C179D0708F4F8C5D09338
:10195000E905C093E805809108068F7309F0EFC58B
:10196000109109061111EBC5E090BD04F090BE0482
:10197000E114F10431F48091BF049091C004892BEB
:1019800021F120910B0680911206909113062131CE
:1019900061F48F3F2FEF920741F4209114063091AC
:1019A00015062F3F3F4F09F452C08E159F0509F0D1
:1019B000C6C520911406309115068091BF04909100
:1019C000C0042817390709F0BAC50E94CE15019640
:1019D00009F0B5C580910B06863009F412C181313A
:1019E000B1F1813009F0ABC580911606883009F05D
:1019F000A6C5109216068091180690911906873F89
:101A00007FEF970710F0099601C00896909319068A
:101A10008093180680910E0690910F0690931306FE
:101A200080931206809110069091110690931506EE
:101A300080931406F0920F06E0920E068091BF0488
:101A40009091C00490931106809310067CC56C970A
:101A5000D093E905C093E8058EE196E09093EB05FD
:101A60008093EA0580911C0690911D06892B99F4BC
:101A700020911806309119064091160650911706CC
:101A800060910E0670910F06A0911006B09111069C
:101A9000E1E7F3E00BC081E1F9D7019609F04FC50A
:101AA000E7CF84819581009731F43B9683E0ED394F
:101AB000F807B8F324C028173907B9F7868197814A
:101AC000009719F04817590781F780819181009795
:101AD00029F4C281D381CD2B49F416C08F3F1FEF6B
:101AE000910721F4C281D381219671F0681779079B
:101AF000E1F682819381A817B907B9F605C0F09382
:101B00000703E09306031BC5F0930703E093060366
:101B100010920E0310920D0382E080930C038EE16D
:101B200096E09093EB058093EA059093E50580930A
:101B3000E4051092E7051092E60597DD8091E60531
:101B40009091E705009709F4FAC49C01245E3F4F89
:101B50003093E9052093E8053093040620930506A9
:101B6000E0910603F0910703208520930A0621E106
:101B700020930B06089698278927982790931B0691
:101B800080931A0610921D0610921C06848195817E
:101B90009093170680931606868197819093190675
:101BA000809318068091BD049091BE0490930F0617
:101BB00080930E068091BF049091C004909311060B
:101BC0008093100680819181909313068093120672
:101BD0008281938190931506809314068AE296E0A1
:101BE0009093EB058093EA0581E150D7809590951D
:101BF000009711F48FEF9FEF90931D0680931C06C2
:101C00007CC486E043D7019609F099C42091180658
:101C100030911906809116069091170660910E0674
:101C200070910F06E0911006F0911106C5E0D5E025
:101C3000498D4423A9F0AC81BD812A173B0781F46B
:101C4000AE81BF818A179B0759F4A881B9816A17B1
:101C50007B0731F4AA81BB81EA17FB0709F46FC146
:101C60006E9645E0CD37D40719F7809123068F7320
:101C70008230E1F4309317032093160380E0843020
:101C800099F0E82FF0E0EE0FFF1FE156FC4F408186
:101C900051818F5F2417350791F71092A70380E0D9
:101CA000C0E0D0E09EE17CC08093A7038091230632
:101CB00082FD45C484E18093230688E290E09093FE
:101CC000E9058093E80580E58093220630911D06A2
:101CD0008091210680931D0620911C06809120068C
:101CE00080931C062093200690911B0680911F066E
:101CF00080931B0690931F0680911A068093A7037A
:101D000040911E0640931A0680931E063F5F309353
:101D1000210631110DC02F5F20932006211108C02C
:101D20009F5F90931F06911103C08F5F80931E06E3
:101D300080911606909117069093170380931603CF
:101D40002091180630911906309317062093160635
:101D5000909319068093180680910E0690910F06B5
:101D600090931306809312068091100690911106AD
:101D700090931506809314068091BD049091BE0443
:101D800090930F0680930E068091BF049091C0043B
:101D9000909311068093100695C3473099F08F5F9A
:101DA0008430F1F0282F30E0929FF001939FF00DE6
:101DB0001124EB5FFA4F418D4111EFCF8093A703C0
:101DC000EF0110C0209721F0528D4A8D451738F74A
:101DD000929FE001939FD00D1124CB5FDA4FDFCFAC
:101DE0008093A703209709F4AAC3D0930E03C0934E
:101DF0000D0383E08A8F888F1E8A84E08F8B1B8E71
:101E000080911806909119069D838C838091160607
:101E1000909117069F838E8380910E0690910F06F6
:101E20009983888380911006909111069B838A8301
:101E300081E0898F809108038C87809109038D87C9
:101E400080910A038E8780910B038F8781E090E059
:101E5000998B888B80911D068B8780911C068A87C1
:101E600080911B06898780911A06888781E090E01F
:101E70000E943B2380912206982F907F913508F491
:101E800044C082958F7090E00597880F991F880F46
:101E9000991F20911503E12FF0E0E817F9078CF561
:101EA000EC50FA4F26A9211105C01093A7031092F8
:101EB00015032BC0213011F41F5FEDCF2230E1F468
:101EC00037A93430C9F41093A7032093150380ADCC
:101ED00090E0982F882721AD822B90931703809351
:101EE0001603813062E0960710F080E092E09B8B51
:101EF0008A8B9D8B8C8B09C037A9332311F0130F6C
:101F0000CACF1093A7032093150380E18093230683
:101F10008091230682608093230682E080932A06C4
:101F200094E090932B0680932C0610922D068CE261
:101F300090E09093E9058093E80580E671C2D09324
:101F40000E03C0930D0310920C0330912306132F40
:101F5000147032FF03C0198E80E20CC22091220659
:101F600022952F70220F220F2093A7038091E8055E
:101F70009091E9054497821B91099093E90580931C
:101F8000E8054F70423021F4232F2F732231C9F01E
:101F9000892B19F4832F8370A1F090911A068885FC
:101FA000981334C290911B06898598132FC2909183
:101FB0001C068A8598132AC290911D068B8598135A
:101FC00025C234FF49C0688979896115710509F412
:101FD00043C0CE010C960E94052330911E068091CD
:101FE0001103381339C020911F0680911203281362
:101FF00033C0909120068091130398132DC08091D7
:10200000210640911403841327C03C872D879E87A7
:102010008F878B8D811119C09E89888D2A8D821B97
:10202000292F269526952695821B980F9E8B87FD36
:1020300081952F89322F36953695231B820F8F8BF2
:10204000969596959695890F888F81E080930C03DD
:10205000888D8A8F198A188A298DE22FEF708E2F2A
:1020600090E0FC013197E830F10508F068C288275C
:10207000EE58FF4F8F4F0C94A32880910C0380FFE4
:102080005EC283E0898F80E480930C03198A188AEA
:102090008091E8059091E905009709F4FDC022E4DC
:1020A00020930C030E943B23F7C080910C0380FF18
:1020B0006DC0809123068F73823109F067C08091D3
:1020C0002206982F907F913508F444C082958F7036
:1020D00090E00597880F991F880F991F209115038D
:1020E000E12FF0E0E817F9078CF5EC50FA4F26A93C
:1020F000211105C01093A703109215032BC02130A6
:1021000011F41F5FEDCF2230E1F437A93430C9F468
:102110001093A7032093150380AD90E0982F882794
:1021200021AD822B9093170380931603813072E0C8
:10213000970710F080E092E09B8B8A8B9D8B8C8BB5
:1021400009C037A9332311F0130FCACF1093A70387
:102150002093150383E0898F80911A0688878091E8
:102160001B06898780911C068A8780911D068B87B4
:1021700081E090E00E943B2382E480930C03198A63
:10218000188A1092E9051092E80586C080E28093D3
:102190000C030E94EB19198E89CD8091230680FFD4
:1021A00028C024FD26C088899989892B09F0C7C1D8
:1021B0008091E8059091E90501960E943B2380916A
:1021C0000C03982F906190930C032091E8053091B7
:1021D000E905232B19F0826180930C030E94EB190F
:1021E00081E090E0998B888B88E0898F1B8E81E15C
:1021F0000EC185FF1DC08091280690E0982F88278A
:1022000030912906832B4091EA055091EB05480F48
:10221000591F5093EB054093EA054091E805509112
:10222000E905BA01681B790B7093E9056093E8052D
:102230004091E8055091E9054115510551F024FD03
:1022400008C090910C03926090930C03CA010E9405
:102250003B238091240690E0982F88272091250623
:10226000820F911D90931703809316032C893D894B
:102270002817390710F0892B21F430931703209386
:10228000160380911603909117039B8B8A8B809184
:102290000C03837009F453C11092E7051092E60510
:1022A0000E94EB1980910C0385FF07C01092E7058F
:1022B0001092E605198E84E1AAC084FF0AC010922C
:1022C000E7051092E60581E090E0998B888B84E029
:1022D0008CCF2091E6053091E70521153105E1F01D
:1022E00080FF02C0198A188A88899989009781F429
:1022F0008A899B898217930720F49093E70580933E
:10230000E6058091E6059091E705998B888B04C0DE
:102310009093E7058093E6051B8E8091E4059091EC
:10232000E5059093EB058093EA058091E605909191
:10233000E705892B59F088899989009739F08896A3
:102340009093E9058093E80588E10BC080910C0328
:1023500081FFF5C088E290E09093E9058093E8055D
:1023600080E1809323065BC080910C0380FFE7C06F
:10237000198E80E180930C030E94EB19E0C08091DC
:10238000E8059091E905009711F00E943B23909198
:10239000230680910C0390FF0BC080FF06C087E0EE
:1023A000898F1A8E198A188A19C086E0898F16C0FB
:1023B00080FF1DC085E0898F198A188AC0C080916E
:1023C000E8059091E905009711F00E943B23809168
:1023D000230680FF0CC087E0898F1A8E81E090E091
:1023E0000E943B2380E180930C03F5D70FC08091BE
:1023F000E8059091E905892B49F4A1C080910C036F
:1024000080FF9DC087E0898F1A8E99C080E18093FC
:10241000230688E290E09093E9058093E80580E543
:1024200080932206888580931E06898580931F06E7
:102430008A85809320068B85809321068C858093E6
:102440001A068D8580931B068E8580931C068F85CA
:1024500080931D0686E080930B068C819D8190936E
:102460001706809316068E819F819093190680939C
:1024700018068091BD049091BE0490930F0680933E
:102480000E068091BF049091C00490931106809332
:1024900010068881998190931306809312068A8191
:1024A0009B819093150680931406898D84FF05C047
:1024B000109225061092240605C082E0809324061F
:1024C0001092250680E480930A068091E805909199
:1024D000E905909304068093050610922906109250
:1024E0002806109227061092260686E0CFD2809505
:1024F0009095909327068093260685E480930206A4
:1025000010920306109209061092080680910F039C
:102510009091100301969093100380930F03909372
:1025200006068093070610920D0610920C0636D30D
:102530008095909590930D0680930C0604C01092A0
:10254000E9051092E80510920C03DF91CF911F91DD
:10255000FF90EF9008950F931F93CF93DF93DC01CB
:1025600020919D0330919E032F5F3F4F21158DE7F2
:10257000380710F020E030E1522F432FE1E7F3E07D
:1025800080E0843041F0C481D5818F5F3B96C417D1
:10259000D507B9F7E9CF30939E0320939D0390E0D0
:1025A0008BE09430D1F0292F30E041E0490F829F39
:1025B000F001839FF00D1124EF58FC4FEF0124969A
:1025C00004811581012B39F49093A703309741F4CE
:1025D00080E090E02EC0942FE4CF9093A703F8CF33
:1025E00080919D0390919E0398278927982799832E
:1025F000888377836683109729F410821182128270
:1026000013820BC08D919C911197918380831296B8
:102610008D919C911397938382838BE0829FD0014D
:10262000839FB00D1124AF58BC4F80E418968C9353
:10263000CF01DF91CF911F910F910895CF93DF9339
:10264000EC010E94D7202091E8053091E905909196
:1026500004032A32310521F4109205039D7F03C043
:102660001D821C82926090930403DF91CF910FC36F
:10267000CF93DF931F92CDB7DEB7DC01ED91FC91D4
:10268000028CF38DE02D41E050E0BE016F5F7F4F83
:102690001995181619061CF4898190E002C08FEF75
:1026A0009FEF0F90DF91CF910895CF93DF931F920B
:1026B000CDB7DEB76983DC01ED91FC910280F38137
:1026C000E02D41E050E0BE016F5F7F4F19950F9004
:1026D000DF91CF910895DC01ED91FC91028CF38D97
:1026E000E02D199480E00895CF93DF931F92CDB72A
:1026F000DEB76983DC01ED91FC910280F381E02D6E
:1027000041E050E0BE016F5F7F4F19950F90DF9160
:10271000CF910895FB0141505109460F571FE4170F
:10272000F50778F4208130E0322F22276181260FCF
:10273000311D820F931F8217930708F4019632967A
:10274000EECFE417F50751F4208130E0322F222735
:10275000820F931F8217930708F401960895CF9371
:10276000DF931F92CDB7DEB7DC01ED91FC910088BD
:10277000F189E02D41E050E0BE016F5F7F4F199578
:1027800097FD03C0898190E002C08FEF9FEF0F900B
:10279000DF91CF9108950F931F93CF93DF931F92F3
:1027A000CDB7DEB78C01DC01ED91FC910688F7898D
:1027B000E02D1995882391F0D8011C96ED91FC919C
:1027C0001D978181882351F041E050E0BE016F5F89
:1027D0007F4F0E947122898190E002C08FEF9FEFAE
:1027E0000F90DF91CF911F910F910895CF93DF93B9
:1027F000EC018A89882369F09A01AB016E857F8597
:102800000E9401202E853F85280F391F3F872E8784
:1028100002C080E090E0DF91CF910895CF93DF93E5
:10282000EC018C859D85892B19F480E090E023C014
:10283000EA89EE23D1F381E08B8B8E859F8525E09D
:10284000E29FF0011124E855FC4F938382838C852D
:102850009D85909307038093060385E00E94C70B34
:102860008091E8059091E905892BF9F2CE010E9649
:10287000E5DE81E090E0DF91CF9108950F931F9303
:10288000CF93DF93EC018B018C859D85892B39F4E7
:1028900060E070E080E090E05EDE9D878C87EC85F4
:1028A000FD85309751F010270127102715830483E9
:1028B0002E96D287C18781E001C080E0DF91CF9161
:1028C0001F910F910895CF93DF93DC011C96ED913A
:1028D000FC911D973097B1F0EC011582148212869D
:1028E00011861D861C8689890E94271E88890E9460
:1028F000271E8A890E94271E2E9686E0FE011192CD
:102900008A95E9F7DF91CF9108959F92AF92BF9298
:10291000CF92DF92EF92FF920F931F93CF93DF93AB
:102920008C017B016A01C1ECD4E0A12CB12C8EE1B9
:10293000982E288124FF18C030E02F70929EF0015D
:10294000939EF00D1124EB5FFA4F24813581F8013D
:10295000848195812817390739F4A601B701CE0182
:102960000E940906A80EB91E6196F5E0C530DF0782
:1029700001F7C501DF91CF911F910F91FF90EF906B
:10298000DF90CF90BF90AF909F900895FC0113828D
:10299000128288EE93E0A0E0B0E084839583A68362
:1029A000B7838FE092E091838083158614863E96EC
:1029B00086E0DF011D928A95E9F70895CF92DF92B4
:1029C000EF92FF920F931F93CF93DF93CDB7DEB7B4
:1029D000AA970FB6F894DEBF0FBECDBF7C016A0187
:1029E0000DE812E01A8309831B821C821D821E825D
:1029F000CE01099669A77AA7C9DF1E8F0D8F1F8E9A
:102A000018A219A21AA280910B0790910C07A0910D
:102A10000D07B0910E078DA39EA3AFA3B8A78B831C
:102A20009C83AD83BE8318861F82AE01435E5F4FD9
:102A300069A57AA5CE0101960E949906813091057B
:102A4000B1F4D701ED91FC910288F389E02D1CA32C
:102A50000BA38F8D98A1A9A1BAA18DA39EA3AFA30B
:102A6000B8A7A601BE016D5D7F4FC7011995AA9653
:102A70000FB6F894DEBF0FBECDBFDF91CF911F918F
:102A80000F91FF90EF90DF90CF900895EF92FF921B
:102A90000F931F93CF93DF93C82FE0900506F12C7F
:102AA00084E1E81AF1082091040630E0322F222751
:102AB000E20EF31E48E050E06EE076E0C7018C0FB6
:102AC000911D28DEC13131F0C0912206C695C69510
:102AD000CC7301C0C8E0D0E0AE0166E176E01ADE5A
:102AE0008C01CE15DF0508F04AC0A7014C1B5D0B19
:102AF000BE016E5D7F4F809105030E944520EC0171
:102B0000219760E085E35CD78AE38EBD0DB407FEB4
:102B1000FDCFA80160E070E06C177D07C8F41EBC13
:102B20000DB407FEFDCF2EB530E0322F22271EBC9C
:102B30000DB407FEFDCF8EB5280F311D420F531F78
:102B40004217530710F44F5F5F4F6E5F7F4FE4CF24
:102B50008A016C177D0781F41EBC0DB407FEFDCF02
:102B60008EB590E0982F88278A01080F191F081743
:102B7000190710F40F5F1F4F61E085E321D701159E
:102B8000110519F0902F812F02C08FEF9FEFDF9179
:102B9000CF911F910F91FF90EF90089544E150E085
:102BA00062E076E080E090E0B5DD009721F09827C4
:102BB0008927982708958FEF9FEF0895CF93DF938C
:102BC000EC01DA01F9012C8130E0322F22278D81CE
:102BD000282B3227232732274DEB54E08A8190E0BF
:102BE000982F8827CB818C2B982789279827EA0153
:102BF000998388833B832A8314968C91149790E061
:102C0000982F882715962C911597822B982789271E
:102C10009827CCEED5E012962C91129730E0322F07
:102C2000222713964C91242B3227232732273983CE
:102C300028839B838A83848190E0982F882725812D
:102C4000822B982789279827A0EFB5E03281232F80
:102C500030E0322F22274381242B322723273227AB
:102C600011963C932E9313969C938E931297FB018F
:102C700082819381A481B58180930B0790930C0787
:102C8000A0930D07B0930E07DF91CF910895EF92B7
:102C9000FF921F93CF93DF938091040381FF11C0B4
:102CA0002091020330E044EF55E060E070E0809155
:102CB00005030E940120809104038D7F809304030B
:102CC00015C08091E8059091E9050E945E1F8093F0
:102CD0000503882309F446C02091E8053091E905F1
:102CE00044EF55E060E070E00E940120E0910503B0
:102CF00085E0E89FF0011124E855FC4FC081D181A7
:102D00002197E280F380EC0EFD1ECE010E94011F90
:102D1000182F882321F060E0CE010E94EC1EBE0136
:102D200084E0F6D7B70186E0F3D748E06FE180E8AA
:102D3000AED78CE1CDD76CE180E00E94B31E81FF5D
:102D400004C048E06FE180EAA2D7112321F0612F8F
:102D5000CE010E94EC1E8091050379D710920503E5
:102D600081E001C080E0DF91CF911F91FF90EF9053
:102D70000895CF92DF92EF92FF920F931F93CF931C
:102D8000DF9380910303811150C089E3A1D769E3E8
:102D900080E0E9D7882309F446C06091B1047091BE
:102DA000B2048B010A5F1F4F011528E0120710F0D3
:102DB0000F5F174080E0ACD760E08AE3D4D790E0A3
:102DC0009093B2048093B10460E08AE3CCD7209161
:102DD000B1043091B204382B3093B2042093B10483
:102DE00060E08AE3C0D7C82F60E08AE3BCD7D82F61
:102DF00060E08AE3B8D7F82E40E46EE180E847D778
:102E0000F7FE0EC010935906009358068C2F90E0E1
:102E10009D2B049790935B0680935A068FEF03C017
:102E20000E94942080E080930303C0910303CC238D
:102E300009F41FC181E0809304038C2F0E947F203E
:102E40009093E9058093E805892B09F406C142E6D1
:102E500050E064EF75E08C2F0E947122C091000653
:102E6000D0910106C830D10509F044C08091030318
:102E7000809305038091E8059091E9050E97909362
:102E8000E9058093E8052091BD043091BE0480914E
:102E90000E0690910F06822793272091F00530911E
:102EA000F10582239323892BC1F42091BF04309133
:102EB000C0048091100690911106822793272091DB
:102EC000F2053091F30582239323892B31F46AEFC5
:102ED00075E08EE096E00E94CA2181E00E94C70B57
:102EE0008091E8059091E905892B09F4B6C00E940C
:102EF000D720B2C0C83036E0D30709F0AEC0809109
:102F0000E8059091E9051092E9051092E8058A9785
:102F100008F49CC08091080690910906811541E053
:102F2000940729F08115924009F474C08FC0209154
:102F30001A0630911B068091BD049091BE0428179B
:102F4000390709F083C020911C0630911D0680913D
:102F5000BF049091C0042817390709F077C06AE0D0
:102F600076E080E196E00E94CA2180E092E09093B2
:102F700009068093080686E0EAE0F6E0A4E1B6E000
:102F800001900D928A95E1F786E0E3EBF4E0AAE088
:102F9000B6E001900D928A95E1F786E0E3EBF4E06C
:102FA000AAEFB5E001900D928A95E1F786E0E4E1A1
:102FB000F6E0A4EFB5E001900D928A95E1F78091DB
:102FC00010069091110690931B0680931A0680912B
:102FD00012069091130690931D0680931C06809113
:102FE000BD049091BE0490931106809310068091C9
:102FF000BF049091C0049093130680931206D0935F
:103000000106C09300068AE290E09093E905809360
:10301000E8051CC020911A0630911B068091BD0462
:103020009091BE042817390789F420911C0630912D
:103030001D068091BF049091C0042817390731F410
:103040006AE076E080E196E00E94CA218091E8057E
:103050009091E905892B09F01ADE809103038823FA
:1030600041F08091040380FF04C00E9494201092DC
:10307000030397D56B017C018091B9049091BA0448
:10308000A091BB04B091BC04A7019601281B390B89
:103090004A0B5B0BDA01C90180959095A095B0951C
:1030A0008827B7FD83959927AA27BB27C82F05E056
:1030B00015E010930E0300930D03CC2311F082E072
:1030C00012C0D8015C96ED91FC915D97858596853F
:1030D000A785B089A7019601281B390B4A0B5B0B0A
:1030E00057FD0CC083E00E94C70B8091E8059091CA
:1030F000E905892B19F00E94D720C9DD025E1F4F18
:1031000035E00D371307A9F6CC2329F1D701C60105
:1031100086509F4FAF4FBF4F8093B9049093BA042E
:10312000A093BB04B093BC04C1E7D3E0D0930703E2
:10313000C093060385E00E94C70B8091E80590913B
:10314000E905892B19F089859A8578DA2B9643E071
:10315000CD39D40759F7DF91CF911F910F91FF908F
:10316000EF90DF90CF900895DF92EF92FF920F9350
:103170001F93CF93DF9300D01F92CDB7DEB77C01B2
:103180004B835C8369837A83F4DDF70181894B810A
:103190005C8169817A81882319F10E9471228C01F6
:1031A000F701D1888D2DABD70817190729F48D2D7C
:1031B0004ED5F701118A12C085E0D89EF001112486
:1031C000E855FC4F80819181800F911F918380830E
:1031D00082819381801B910B93838283C80102C0FB
:1031E00080E090E00F900F900F900F90DF91CF91C3
:1031F0001F910F91FF90EF90DF900895CF93DF9391
:10320000EC01B7DD8989DF91CF9179C7CF93DF9347
:10321000EC01AFDD89891BD58889898B188ADF91FC
:10322000CF916DC7CF92DF92EF92FF920F931F93D2
:10323000CF93DF9300D01F92CDB7DEB78C016B0127
:103240007A0197DDF60182819381A481B581892B72
:103250008A2B8B2B41F1E114F10429F1828190E05A
:10326000982F88272381822B9827892798279A834C
:103270008983248130E0322F22274581242B322775
:10328000232732273C832B83D8011C96ED91FC9198
:103290001D977E2D6F2D309721F177836683918363
:1032A000808333832283D8011C968D919C911D9736
:1032B000892BA1F052968C91811110C086E096E086
:1032C000FDD5F801828B2AE230E03787268721E09E
:1032D00090E0811101C020E0822F14C080E090E0D6
:1032E00011C0CE01019637D9D8011D969C938E93BB
:1032F0001C97009799F39801225F3F4FFC0132879A
:103300002187D1CF0F900F900F900F90DF91CF9129
:103310001F910F91FF90EF90DF90CF900895FC01E7
:103320002481358180E0843099F0E82FF0E091E04D
:10333000980FEE0FFF1FE156FC4F40815181452B46
:1033400029F48093A7033183208304C0892FEBCF16
:103350008093A7030ECD0F931F93CF93DF93EC01C0
:103360008C010B5F1F4F888172D41992C017D1074F
:10337000D1F7DF91CF911F910F910895CF93DF93F4
:10338000EC01E881F9810688F789E02D19958823F9
:1033900031F08C859D850196DF91CF91DCCFDF9157
:1033A000CF9108950F931F93CF93DF93EC01DC012E
:1033B0008D918D014CD4FE01CE010496D8012D9142
:1033C0008D012193E817F907C9F71C82DF91CF918E
:1033D0001F910F910895EF92FF920F931F93CF9338
:1033E000DF93A0910D03B0910E035C96CD91DC911B
:1033F0005D9750910C03209749F556FF5DC0E1ECB5
:10340000F4E080E090E0208121111AC061E1689F22
:103410009001699F300D1124E901CF53DB4F80618A
:1034200088832E533B4F80E1F90111928A95E9F789
:10343000209709F441C05D96DC93CE935C9706C05B
:103440000196719684309105F1F636C051FF07C0A0
:103450008091E8059091E905892B09F040C08881A9
:1034600087FF0EC08F77888380910C0382608093E2
:103470000C03E0910D03F0910E03818D8F7E818FFF
:1034800080910C0384FF66C0CE01069664DF8981BB
:10349000882309F462C0E0910D03F0910E0384814A
:1034A00095819F838E83888180648883E0910D035A
:1034B000F0910E03158E148EE12CF12CB701809142
:1034C000EA059091EB05CFD7F092E905E092E80587
:1034D000DF91CF911F910F91FF90EF900895888118
:1034E000807609F0BCCF8E010F5F1F4FF12CF801E1
:1034F000808181111CC08091E8059091E905DED49E
:10350000F8018083882399F00091E8051091E9057E
:103510002091EA053091EB05245F3540409103038B
:1035200060E070E00FD6F4E0FF1299CF0BC0F39487
:103530000F5F1F4F25E0F212DACF809104038E7FD8
:1035400080930403E0910D03F0910E03818D80615F
:10355000818F85CF87FF03C097CF1882A7CF80FFC9
:1035600003C0CE0106961EDF80910C038C70D1F152
:103570008E818823B9F19F8191110FC0EB84FC8467
:10358000E114F10409F49ACF35E0839FF00111248E
:10359000E855FC4FF382E28205C0B1D57C01892B4E
:1035A00009F48CCF8091EA059091EB05845F9540FA
:1035B00080930203F701E80FF11DCF017FD48093C0
:1035C0000503882309F47ACF6091020370E0870134
:1035D00020E030E04E81B6D5809104038260809374
:1035E00004036CCF888185FF67CF8E8181110BC06A
:1035F0001882E0910D03F0910E03158E148E80E178
:1036000080930C0359CFE0910D03F0910E03818D4F
:103610008061818F51CFFC01918D828D981761F06F
:10362000828DDF01A80FB11D5D968C91928D9F5FF9
:103630009F73928F90E008958FEF9FEF0895FC01A4
:10364000918D828D981731F0828DE80FF11D858D57
:1036500090E008958FEF9FEF08958CE696E024D1D7
:1036600021E0892B09F420E0822F08958F929F9208
:10367000AF92BF92CF92DF92EF92FF920F931F9380
:10368000CF93DF937C01EB016C0182E0C80ED11C6B
:103690004701E5E08E0E911C00E010E0F60141913B
:1036A0006F0150E060E070E02AE0CE0167D75C0176
:1036B000E881F9810190F081E02D6EE2CE0119954B
:1036C0008A0D9B1D080F191FC814D90439F7F7017B
:1036D000458150E060E070E02AE0CE014FD7800FD6
:1036E000911FDF91CF911F910F91FF90EF90DF908D
:1036F000CF90BF90AF909F908F900895EF92FF92E0
:103700000F931F93CF93DF93EC0181E0888F9B8D04
:103710008C8D981305C0E889F989808185FD23C0C7
:10372000F62E0B8D10E00F5F1F4F0F731127E02E49
:103730008C8DE8120BC00FB607FCFACFE889F98927
:10374000808185FFF5CFCE011AD1F2CF8B8DFE019E
:10375000E80FF11DE35AFF4FF0820B8FEA89FB89D6
:103760008081806207C0EE89FF896083E889F989DA
:1037700080818064808381E090E0DF91CF911F9110
:103780000F91FF90EF900895CF93DF93EC01888D18
:103790008823C1F0EA89FB89808185FD05C0A8895D
:1037A000B9898C9186FD0EC00FB607FCF5CF8081DC
:1037B00085FFF2CFA889B9898C9185FFEDCFCE0125
:1037C000DED0E8CFDF91CF9108952DE832E0FC0103
:1037D00031832083FB014081518162817381FC012F
:1037E000428353836483758308951F920F920FB6AB
:1037F0000F9211240BB60F922F933F934F935F9329
:103800006F937F938F939F93AF93BF93EF93FF93A8
:103810008CE696E0B4D0FF91EF91BF91AF919F916C
:103820008F917F916F915F914F913F912F910F9069
:103830000BBE0F900FBE0F901F9018951F920F9206
:103840000FB60F9211240BB60F922F938F939F9365
:10385000EF93FF93E0917C06F0917D068081E091EB
:103860008206F091830682FD12C0908180918506C8
:103870008F5F8F7320918606821751F0E091850645
:10388000F0E0E459F94F958F8093850601C080815F
:10389000FF91EF919F918F912F910F900BBE0F9001
:1038A0000FBE0F901F901895FC01918D228D892FCE
:1038B00090E0805C9F4F821B91098F739927089538
:1038C00080E090E0892B19F0C8DE811125C080E0EE
:1038D00090E0892B41F080E090E0892B21F00E945C
:1038E000000081111CC080E090E0892B41F080E055
:1038F00090E0892B21F00E940000811113C080E02C
:1039000090E0892BA1F080E090E0892B81F00E946B
:10391000000081110AC008950E940000D8CF0E94C3
:103920000000E1CF0E940000EACF0C94000008954F
:103930003FB7F8948091680690916906A0916A0655
:10394000B0916B0626B5A89B05C02F3F19F00196D4
:10395000A11DB11D3FBFBA2FA92F982F8827820F15
:10396000911DA11DB11DBC01CD0142E0660F771F65
:10397000881F991F4A95D1F708950E94B228FC012B
:10398000848DDF01A80FB11DA35ABF4F2C91848DE8
:1039900090E001968F739927848FA689B7892C931D
:1039A000A089B1898C9180648C93938D848D9813B8
:1039B00006C00288F389E02D80818F7D8083089581
:1039C000362F90E0FC01E852FE4F4491FC01EE5688
:1039D000FE4F2491FC01E45BFE4F9491992309F47E
:1039E0006BC0442309F455C050E0FA013197E2312D
:1039F000F10508F04EC08827E658FF4F8F4F0C9412
:103A0000A328809180008F7707C0809180008F7DF0
:103A100003C080918000877F809380003AC084B586
:103A20008F7702C084B58F7D84BD33C08091B00094
:103A30008F7703C08091B0008F7D8093B00029C044
:103A4000809190008F7707C0809190008F7D03C098
:103A500080919000877F809390001BC08091A00090
:103A60008F7707C08091A0008F7D03C08091A00058
:103A7000877F8093A0000DC0809120018F7707C0C1
:103A8000809120018F7D03C080912001877F8093EA
:103A90002001E92FF0E0EE0FFF1FEE5CFE4FA59135
:103AA000B4918FB7F894EC91311103C020952E2377
:103AB00001C02E2B2C938FBF0895CF93DF9390E0FE
:103AC000FC01EE56FE4F2491FC01E45BFE4F849115
:103AD000882361F190E0880F991FFC01E85EFE4F9A
:103AE000C591D491FC01EE5CFE4FA591B49161119A
:103AF00009C09FB7F8948881209582238883EC9130
:103B00002E230BC0623061F49FB7F8943881822F66
:103B1000809583238883EC912E2B2C939FBF06C026
:103B20008FB7F894E8812E2B28838FBFDF91CF9138
:103B300008958F929F92AF92BF92CF92DF92EF92B1
:103B4000FF926B017C01F4DE4B015C01C114D104D6
:103B5000E104F104E9F0ECDEDC01CB0188199909FC
:103B6000AA09BB09883E9340A105B10578F321E07D
:103B7000C21AD108E108F10888EE880E83E0981E89
:103B8000A11CB11CC114D104E104F10421F7DECF62
:103B9000FF90EF90DF90CF90BF90AF909F908F906D
:103BA00008952FB7F894609164067091650680912E
:103BB0006606909167062FBF08951F920F920FB669
:103BC0000F9211242F933F938F939F93AF93BF93A3
:103BD0008091640690916506A0916606B091670693
:103BE0003091630623E0230F2D3720F40196A11DA9
:103BF000B11D05C026E8230F0296A11DB11D20931B
:103C000063068093640690936506A0936606B0935E
:103C100067068091680690916906A0916A06B09146
:103C20006B060196A11DB11D8093680690936906ED
:103C3000A0936A06B0936B06BF91AF919F918F914D
:103C40003F912F910F900FBE0F901F9018958823D2
:103C5000E9F0A8EAB3E025E014969C911497981334
:103C60000DC095E0899FF0011124E855FC4F848137
:103C700014968C931382128214820895992331F042
:103C8000299FD0011124A855BC4FE6CF08950F936A
:103C90001F93CF93DF931F92CDB7DEB7182F062F58
:103CA00060E085E349838CDE802F8F71812B8EBD90
:103CB00049810DB407FEFDCF4EBD0DB407FEFDCF0B
:103CC00061E085E30F90DF91CF911F910F9178CE46
:103CD0001F93CF93DF93182F1076C12FD0E0209140
:103CE000060230E0C217D30779F043E06FE180EAC3
:103CF000CEDFAE0185E0559547958A95E1F76FE1F6
:103D000080E8C5DF10930602DF91CF911F910895DF
:103D10001F93CF93DF931F921F92CDB7DEB7182F5B
:103D200069837A83D5DF4981612F80E4B0DF61E068
:103D3000610F7A81472F80E40F900F90DF91CF9130
:103D40001F91A5CF1F93CF93DF931F92CDB7DEB7FF
:103D5000182F6983BDDF4981612F80E40F90DF91C7
:103D6000CF911F9194CFCF93DF93C82FD62F60E0D0
:103D700085E326DE8D2F8F71C82BCEBD0DB407FED7
:103D8000FDCF1EBC0DB407FEFDCFD7FD07C061E01F
:103D900085E316DE8EB5DF91CF9108951EBC0DB47C
:103DA00007FEFDCFF4CFCF93DF93EB01682F84EDB7
:103DB000C9DFBE0186EDACDFC7E3D0E08AEE88DF65
:103DC0006AEE80E0D0DF80FF04C0CE010197F1F7FA
:103DD000F5CFDF91CF910895CF93C62FBC0182E03C
:103DE00097DF60E085E3ECDD8AE78EBD0DB407FE6A
:103DF000FDCFCEBD0DB407FEFDCF61E085E3CF91D1
:103E0000DFCDBC0180E084DF60E085E3D9DD8AE3BB
:103E10008EBD0DB407FEFDCF1EBC0DB407FEFDCF59
:103E200061E085E3CDDD8EB50895CF92DF92EF920C
:103E3000FF920F931F93CF93DF936C018B0141305F
:103E4000510569F4CB01DDDF682FC601DF91CF9109
:103E50001F910F91FF90EF90DF90CF90BDCFEA01BF
:103E6000C60FD71F7E0181E0E81AF10880E150DF1C
:103E7000B60184E14DDF0115184038F4E11488E003
:103E8000F80618F07E0188E0F81AB70182E140DFF9
:103E900040E16FE180EAFBDE40E26FE180E8F7DEBF
:103EA0006FE180E060DF85FDFBCFDF91CF911F9157
:103EB0000F91FF90EF90DF90CF900895CF92DF9217
:103EC000EF92FF920F931F93CF93DF938C0160913A
:103ED000A8037091A9036150784EC12C98E1D92EA6
:103EE000E8EAF3E080E0C0E0D0E045E09481992387
:103EF00049F0499F9001112428553C4FD9012D913B
:103F00003C9101C09B01E080F1802E193F090280A5
:103F1000F381E02D2E1B3F0B2017310739F4B5E05C
:103F20008B9FE0011124C855DC4F48C002171307CE
:103F300048F42C153D0530F4489FE0011124C85584
:103F4000DC4F6901911107C02097C1F5C8EAD3E0A1
:103F500085E0D82E1DC0499FF0011124E855FC4F83
:103F6000892FC4CFEA80FB8028813981E20EF31EBD
:103F7000D89EE0011124C855DC4F68817981E6168E
:103F8000F70631F04A815B81C7014FDFF982E88291
:103F90008C818111E7CF2091A8033091A9038881FA
:103FA0009981281B390B8A819B81281B390B215051
:103FB000384E2017310710F480E01AC0EDEAF3E024
:103FC00091E022813381232B29F035969F5F953331
:103FD000C1F7F2CF4A815B8128813981240F351FD7
:103FE00031832083138302838C8184839C83892F74
:103FF000DF91CF911F910F91FF90EF90DF90CF90C5
:104000000895CF92DF92EF92FF920F931F93CF9379
:10401000DF937B018A01690125E0829FC0011124A1
:10402000EC01C855DC4F688179816E0D7F1D82E0FF
:104030006FDE0A80DB81C02DCE19DF09CC16DD06CC
:1040400008F4E60160E085E3BBDC8AE78EBD0DB4D1
:1040500007FEFDCFC8018C0F9D1F0817190741F0FF
:10406000F80121918F012EBD0DB407FEFDCFF5CFD4
:1040700061E085E3A5DCCE01DF91CF911F910F9127
:10408000FF90EF90DF90CF900895EF92FF920F9303
:104090001F93CF93DF938B017A018F3FC9F025E007
:1040A000829FE0011124C855DC4F02C0C8E5D6E06C
:1040B00088819981B801680F791F80E029DE8A81A3
:1040C0009B81801B910BE816F90690F4C70110C084
:1040D0008091580690915906860F971F811528E008
:1040E000920720F3BC016F5F7740C8E5D6E0E5CFCB
:1040F000DF91CF911F910F91FF90EF90089588234A
:1041000081F08F3F29F480915A0690915B060895C3
:1041100095E0899FF0011124E855FC4F828193813D
:10412000089580E090E008956091B1047091B20428
:104130006115710519F06150710902C06FEF77E0E8
:104140008CE0E6CD0F931F93DB01E42FA80190E0F4
:10415000EF3FF9F065E0E69FF0011124E855FC4FD0
:1041600002C0E8E5F6E00190F081E02D2E0F3F1F40
:1041700065E0689FF001699FF00D1124E855FC4F40
:1041800080819181B9018A0F9B1F4FDE1F910F9192
:10419000CBCFE0915806F0915906E20FF31FE115DD
:1041A00068E0F607F0F29F012F5F3740E1CF809182
:1041B0001206909113068F3F2FEF920759F420912A
:1041C0001406309115062F3F3F4F21F486E0E1E5BC
:1041D000F2E05AC02091BD043091BE04282739274F
:1041E0004091F0055091F10524233523232B91F4C0
:1041F00060911406709115062091BF043091C0049F
:10420000262737274091F2055091F30524233523C3
:10421000232B89F08091EC059091ED059093600639
:1042200080935F068091EE059091EF059093620672
:104230008093610608C09093600680935F06709338
:1042400062066093610620915F063091600640919E
:1042500061065091620680E09BE001C08F5F88306C
:1042600071F1989FF0011124E85EFC4F608171812B
:104270002617370799F7628173814617570771F739
:1042800080937003349686E0A4EFB5E001900D9220
:104290008A95E1F786E0E3EBF4E0AAEFB5E0019060
:1042A0000D928A95E1F788E090E090930106809363
:1042B00000068091E8059091E9050E9666C080930E
:1042C000700346E050E06FEF70E084EF95E064D754
:1042D00086E0E4E1F6E0DF01282F1D922A95E9F758
:1042E000E3EBF4E0AAEFB5E0982F01900D929A95D8
:1042F000E1F7E3EBF4E0AAE0B6E0982F01900D922D
:104300009A95E1F720915F063091600630931B0685
:1043100020931A06209161063091620630931D06A3
:1043200020931C062091BD043091BE0430931106E9
:10433000209310062091BF043091C00430931306DF
:104340002093120620E031E03093090620930806FE
:10435000309303062093020628E030E030930506F0
:10436000209304068093060684E08093070688E085
:1043700096E090930106809300068AE296E090937F
:10438000EB058093EA058AE290E09093E90580933B
:10439000E8050895EF92FF920F931F93CF93DF9359
:1043A0009C01FB011092700390E08BE0983031F19A
:1043B000899F70011124E701C85EDC4F6881798113
:1043C00061157105C9F04A815B8141155105A1F064
:1043D000D9010D911C9111970617170769F41296D0
:1043E0006D917C9113976417750731F49093700366
:1043F000D701A45EBC4F2AC09F5FD8CF90E08BE06E
:10440000983091F0899FE0011124C85EDC4F48810B
:104410005981452B39F44A815B81452B19F49093DE
:1044200070030AC09F5FECCF10925E0610925D068B
:1044300010927003C8E1D3E0D9014D915D916D9167
:104440007C91DE014D935D936D937D9386E00190A9
:104450000D928A95E1F71A86DF91CF911F910F9106
:10446000FF90EF9008959C01AB017093E705609376
:10447000E605161617064CF48091E4059091E505C3
:104480002817390711F0B9017EC60895CF92DF923F
:10449000EF92FF920F931F93CF93DF936C017A01FA
:1044A0008B01C0E0D0E0CE15DF0589F0D8016D9119
:1044B0008D01D601ED91FC910190F081E02DC601B6
:1044C0001995892B11F47E0102C02196ECCFC7010A
:1044D000DF91CF911F910F91FF90EF90DF90CF90E0
:1044E00008950F931F93CF93DF93EB0160E070E08B
:1044F000CCDD8C0160E085E363DA8AE38EBD0DB428
:1045000007FEFDCFCE01800F911FC817D90739F0E4
:104510001EBC0DB407FEFDCF2EB52993F6CF61E08A
:1045200085E34EDAC801DF91CF911F910F91089575
:104530006115710579F0FB0101900020E9F73197D1
:10454000AF01461B570BDC01ED91FC910280F3811A
:10455000E02D199480E090E00895CF93DF93BC01A3
:104560008CE696E0E5DFEC0169EE72E08CE696E021
:10457000DFDF8C0F9D1FDF91CF9108954F925F92E7
:104580006F927F92EF92FF920F931F93CF93DF93DF
:10459000CDB7DEB7A1970FB6F894DEBF0FBECDBF83
:1045A0007C01FA01CB0119A2223008F42AE08E0125
:1045B0000F5D1F4F422E512C612C712CBF01A301A6
:1045C000920190D5F901CA01015011096A3014F421
:1045D000605D01C0695CD8016C93232B242B252BD3
:1045E00069F7B801C701A4DFA1960FB6F894DEBF42
:1045F0000FBECDBFDF91CF911F910F91FF90EF9034
:104600007F906F905F904F900895FC012381260F5B
:1046100020931403A72FBB2792819A0F9093130323
:10462000318130931203408140931103E92FF0E070
:10463000EA17FB0748F481E0830F8093120381118E
:1046400003C04F5F4093110330E0772726173707E9
:1046500088F49F5F9093130391110CC08091120313
:104660008F5F80931203811105C0809111038F5FCA
:10467000809311030895CF93DF93C0910D03D091E0
:104680000E03BC01CE010896C0DFE1E1F3E08081BA
:1046900088878181898782818A8783818B87DF915F
:1046A000CF910895CF93DF93CDB7DEB7AC970FB618
:1046B000F894DEBF0FBECDBF789484B5826084BD10
:1046C00084B5816084BD85B5826085BD85B5816016
:1046D00085BD80916E00816080936E001092810094
:1046E000809181008260809381008091810081604F
:1046F0008093810080918000816080938000809110
:10470000B10084608093B1008091B000816080939B
:10471000B00080919100826080939100809191001F
:1047200081608093910080919000816080939000DF
:104730008091A10082608093A1008091A10081609E
:104740008093A1008091A00081608093A00080915F
:1047500021018260809321018091210181608093F9
:1047600021018091200181608093200180917A0055
:10477000846080937A0080917A00826080937A00CE
:1047800080917A00816080937A0080917A008068BD
:1047900080937A001092C100E0917C06F0917D0632
:1047A00082E08083E0917806F09179061082E091B2
:1047B0007A06F0917B068DED808310928406E0915D
:1047C0008006F091810686E08083E0917E06F0917C
:1047D0007F06808180618083E0917E06F0917F0674
:1047E000808188608083E0917E06F0917F068081E1
:1047F00080688083E0917E06F0917F0680818F7DC6
:1048000080838CE992E0A9DE8091D905811107C0EF
:1048100085EC95E00E94C61481E08093D9058EE76F
:1048200095E09093E2058093E105BBD9DC01CB01D3
:1048300086509F4FAF4FBF4F8093B9049093BA04F7
:10484000A093BB04B093BC0489E091E0E8EAF3E0F4
:10485000DF019C011D9221503040E1F781E098E09A
:104860009093A9038093A80361E085E326D961E0D2
:1048700085E3A6D861E083E320D961E084E31DD914
:1048800060E082E31AD961E085E317D960E083E351
:1048900097D860E084E394D880E58CBD8DB58160C5
:1048A0008DBD4FEF60E08FEFF2D962E370E080E002
:1048B00090E03FD91092B2041092B10460E070E031
:1048C00088E026DA60E070E08CE022DA6FEF77E0D3
:1048D0008AE01EDA61EB88E335DA6FE370E388E2A1
:1048E00017DA69EF77EF80E313DA6DE070E080ECC0
:1048F0000FDA42E362EC80E8CAD962E17CE086EC40
:1049000007DA62E184EC1EDA6CED75E08AEC00DA1D
:104910006091000284EE16DA6091010285EE12DAEF
:104920006091020282EE0EDA6091030283EE0ADAEF
:104930006091040280EE06DA6091050281EE02DAEF
:1049400060E071E080E12FDA8FE1C2D940EC6BE1E9
:1049500080E89DD944E06FE180E899D966E774E08A
:1049600084E121DA809100028093B30480910102F6
:104970008093B404809102028093B5048091030275
:104980008093B604809104028093B704809105025D
:104990008093B80480E0E82FF0E0EE0FFF1FE156AF
:1049A000FC4F118210828F5F8430A9F780E09EE176
:1049B000989FF0011124EB5FFA4F118E8F5F8430C6
:1049C000B9F780E094E090939E0380939D0380E08C
:1049D0009BE0989FF0011124EF58FC4F1582148240
:1049E0008F5F8430B1F78093A703109270039BE030
:1049F00080917003883068F4989FF0011124E85E7C
:104A0000FC4F10821182128213828F5F8093700399
:104A1000EFCF8091E1059091E205DC0192961D9225
:104A20001D921D921C929597FC0116A217A210A62A
:104A300011A69A961D921D921D921C929D9716AAE0
:104A400017AA10AE11AE40E65AEE60E070E0DA96BA
:104A50004D935D936D937C93DD97FE9640EA5FE006
:104A600060E070E04083518362837383189626E090
:104A7000FD01322F11923A95E9F7AC01425F5F4F89
:104A800034E1FA0111923A95E9F7E0E0F2E00190A1
:104A90000D922A95E1F7FC01EA5BFF4F10820E941C
:104AA00081098130910571F50091E1051091E205D0
:104AB000B8016E5E7F4FCE014B960E94E51BB80198
:104AC0006A5E7F4FCE0145960E94E51BB801625E8B
:104AD0007F4FCE010F960E94E51BB801625F7F4FAA
:104AE000CE0101960E94E51B9E01255E3F4FAE015F
:104AF0004B5E5F4FBE01615F7F4FCE0101960E940A
:104B0000DE1505C0892B19F48DEB92E026DD87EDCB
:104B100092E023DD3091BD042091BE049091BF044A
:104B20008091C00430931D0720931E0790931F07A8
:104B3000809320070DE117E054E0F52EF00ED80128
:104B40004D918D0150E060E070E02AE08CE696E047
:104B500015DD67EE72E08CE696E0EADCF012EFCF4E
:104B600069EE72E08CE696E0E3DC85E197E00E9476
:104B70008F1960E086E30E945D1D38EE432E33E01E
:104B8000532E612C712C44E0242E332433940E9444
:104B9000B9164091190750911A07E1ECF4E08181B0
:104BA000882351F1608164FF20C0262F30E02F70F0
:104BB000BEE1B29FC001B39F900D1124DC01AB5F39
:104BC000BA4F14968D919C9115978417950769F4A7
:104BD0001C821B824D825E826F82788625E332E0E2
:104BE0003A832983FE87ED8718C066FF05C086815A
:104BF00097818417950761F3719635E0E530F307E7
:104C000071F61C821B824D825E826F82788645E33C
:104C100052E05A8349831E861D86CE0101960E946A
:104C20005202882309F426C18091E305811105C051
:104C30008CEE92E092DC3092E305CE0101960E9468
:104C4000AF13182F682F85E197E00E947413E0914D
:104C50006C06F0916D060190F081E02D612F8CE6DD
:104C600096E019950E94B9160091E1051091E205B0
:104C70000115110509F4FEC00E94D11D6B017C01D4
:104C8000F80186A997A9A0ADB1AD98012E5B3F4F61
:104C900038A72FA3892B8A2B8B2B09F4A4C0F901E9
:104CA00080819181A281B381A7019601281B390BD4
:104CB0004A0B5B0BCA01B90157FD5AC0A30192010F
:104CC000E5D169A77AA78BA79CA74601570178EE83
:104CD000870E73E0971EA11CB11C89A59AA5ABA5F0
:104CE000BCA5881A990AAA0ABB0AAFA1B8A58D92D9
:104CF0009D92AD92BC921397BA01A9014F5F5F4F8D
:104D00006F4F7F4FF80186A597A5A0A9B1A94A01C9
:104D10005B01880C991CAA1CBB1C88159905AA0567
:104D2000BB052CF416A617A610AA11AA09C0841B4D
:104D3000950BA60BB70BF80186A797A7A0ABB1AB55
:104D4000F80182A993A9A4A9B5A988159905AA056E
:104D5000BB052CF412AA13AA14AA15AA09C0841B15
:104D6000950BA60BB70BF80182AB93ABA4ABB5AB1D
:104D70005801F6E4AF0EB11CD5018C91833089F453
:104D8000F80186A597A5A0A9B1A9181619061A06B3
:104D90001B063CF0D5012C92C8010E9481090196A6
:104DA00002C080E090E0F5012081233011F0211154
:104DB00028C0D801D2964D915D916D917C91D59787
:104DC0001416150616061706E4F0F5011082F80110
:104DD0003E96DF0124E11D922A95E9F7C8010E9461
:104DE000810903960EC0D701C60188519C4FAF4F71
:104DF000BF4FEFA1F8A580839183A283B38380E0A6
:104E000090E0D801D696CD92DD92ED92FC92D997A2
:104E10008230910511F0049769F50091E105109138
:104E2000E205B8016E5E7F4FCE0181960E94E51BC0
:104E3000B8016A5E7F4FCE014B960E94E51BB80118
:104E4000625E7F4FCE0145960E94E51BB801625F0E
:104E50007F4FCE010F960E94E51B9E012F5D3F4FB5
:104E6000AE01455E5F4FBE016B5E7F4FCE010F9678
:104E70000E94DE158CE696E00E94541C892B31F0CE
:104E800060ED77E080E090E00E94991D0E94601C38
:104E90007ECEE1E2F7E08DE892E09183808312829A
:104EA000138214821582ECE6F6E01382128248EE39
:104EB00053E060E070E044835583668377832BE59D
:104EC00032E03183208325EC30E03587248724ECE1
:104ED00030E03787268720EC30E0318B208B21ECC7
:104EE00030E0338B228B22EC30E0358B248B26ECA8
:104EF00030E0378B268B118E128E138E148EE7E2E4
:104F0000F7E0918380831282138214821582EDE28E
:104F1000F7E0918380831282138214821582E3E387
:104F2000F7E0918380831282138214821582E9E074
:104F3000F7E0918380831282138214821582E9E361
:104F4000F7E0918380831282138214821582EFE04E
:104F5000F7E0918380831282138214821582EFE33B
:104F6000F7E0918380831282138214821582E7E531
:104F7000F7E0918380831282138214821582EBE121
:104F8000F7E09183808340EC428338EA338321E069
:104F9000248351EB5583E1E5F7E0918380834283DD
:104FA000338324832583EBE4F7E09183808342837A
:104FB000338324832583E5E4F7E0918380838FEFB7
:104FC0008283838314821582E5E1F7E013821282E3
:104FD0008BE792E09183808380E097E195838483DF
:104FE00008958F929F92AF92BF92CF92DF92EF92ED
:104FF000FF92CF93DF93EC01688179818A819B8155
:10500000611571058105910521F464E279ED8BE567
:1050100097E02DE133EF41E050E038D049015A01EB
:105020009B01AC01A7EAB1E44DD06B017C01ACEE71
:10503000B4EFA501940152D0DC01CB018C0D9D1D74
:10504000AE1DBF1DB7FF03C00197A109B0488883FB
:105050009983AA83BB83BC01CD019F77DF91CF9158
:10506000FF90EF90DF90CF90BF90AF909F908F9088
:105070000895B7CF87E092E0B4CF609307027093B2
:1050800008028093090290930A020895052E97FB67
:1050900016F400940FD057FD05D024D007FC02D0A1
:1050A00046F408C050954095309521953F4F4F4F9D
:1050B0005F4F089590958095709561957F4F8F4FC4
:1050C0009F4F089531D0A59F900DB49F900DA49F40
:1050D000800D911D11240895B7FFF4CFF3DF821BDB
:1050E000930B0895A1E21A2EAA1BBB1BFD010DC054
:1050F000AA1FBB1FEE1FFF1FA217B307E407F50788
:1051000020F0A21BB30BE40BF50B661F771F881F63
:10511000991F1A9469F760957095809590959B01F9
:10512000AC01BD01CF010895A29FB001B39FC001A2
:10513000A39F700D811D1124911DB29F700D811DC3
:105140001124911D0895EE0FFF1F881F8BBF07903C
:10515000F691E02D199469279627692778278727E4
:105160007827089581E090E0F89424C0FB01DC01E9
:1051700004C08D910190801921F441505040C8F72E
:10518000881B990B0895FB01DC0102C001900D9270
:1051900041505040D8F70895DC0101C06D93415053
:1051A0005040E0F70895FB01DC0101900D920020D2
:0851B000E1F70895F894FFCF28
:1051B80000AABBCCDE02FF01000000000000005581
:1051C80013F613FE183813A50B990B3E14721363CC
:1051D800141219DE140E140619B4186B130F0BFFF2
:1051E8000A00000000860682068501AF13CB13BEB5
:1051F8001968021D09B4011D0354015202420166D7
:1052080001FFFFFFFFFFFF000000007E1B46225446
:105218001C0B1B1F1BC41B00000000BD1C4622BD2D
:105228001CBD1CBD1CBD1C00000000741385148F20
:105238001900000000BD1C462200000000361B00BB
:10524800000000BD1C454E4332384A00547279694B
:105258006E6720746F2073746162696C697368206B
:105268006120636F6E6E656374696F6E00436F6E65
:105278006E656374696F6E20617474656D707420F7
:105288006661696C6564004D7920495020616464E9
:10529800726573733A20002E000D0A005765206866
:1052A8006176652061206E657720636C69656E7430
:0252B8000000F4
:020000023000CC
:10E000000D9489F10D94B2F10D94B2F10D94B2F129
:10E010000D94B2F10D94B2F10D94B2F10D94B2F1F0
:10E020000D94B2F10D94B2F10D94B2F10D94B2F1E0
:10E030000D94B2F10D94B2F10D94B2F10D94B2F1D0
:10E040000D94B2F10D94B2F10D94B2F10D94B2F1C0
:10E050000D94B2F10D94B2F10D94B2F10D94B2F1B0
:10E060000D94B2F10D94B2F10D94B2F10D94B2F1A0
:10E070000D94B2F10D94B2F10D94B2F10D94B2F190
:10E080000D94B2F10D94B2F10D94B2F10D94B2F180
:10E090000D94B2F10D94B2F10D94B2F10D94B2F170
:10E0A0000D94B2F10D94B2F10D94B2F10D94B2F160
:10E0B0000D94B2F10D94B2F10D94B2F10D94B2F150
:10E0C0000D94B2F10D94B2F10D94B2F10D94B2F140
:10E0D0000D94B2F10D94B2F10D94B2F10D94B2F130
:10E0E0000D94B2F141546D656761323536300041AF
:10E0F000726475696E6F206578706C6F72657220DE
:10E1000073746B3530305632206279204D4C530099
:10E11000426F6F746C6F616465723E004875683F52
:10E1200000436F6D70696C6564206F6E203D200048
:10E130004350552054797065202020203D20005FF9
:10E140005F4156525F415243485F5F3D2000415658
:10E1500052204C696243205665723D20004743437C
:10E160002056657273696F6E203D20004350552024
:10E1700049442020202020203D20004C6F7720663D
:10E18000757365202020203D20004869676820665F
:10E190007573652020203D200045787420667573D6
:10E1A00065202020203D20004C6F636B2066757336
:10E1B000652020203D20004D617220203720323024
:10E1C000313300312E362E3800342E332E350056A2
:10E1D00023202020414444522020206F7020636F70
:10E1E00064652020202020696E73747275637469E1
:10E1F0006F6E2061646472202020496E74657272B3
:10E20000757074006E6F20766563746F7200726A49
:10E210006D702020006A6D70200057686174207056
:10E220006F72743A00506F7274206E6F7420737541
:10E2300070706F72746564004D7573742062652030
:10E2400061206C6574746572002000577269747483
:10E25000696E672045450052656164696E672045B7
:10E26000450045452065727220636E743D00504F35
:10E27000525400303D5A65726F2061646472003FF1
:10E280003D43505520737461747300403D454550C3
:10E29000524F4D207465737400423D426C696E6B41
:10E2A000204C454400453D44756D70204545505215
:10E2B0004F4D00463D44756D7020464C415348001B
:10E2C000483D48656C70004C3D4C69737420492F83
:10E2D0004F20506F72747300513D51756974005234
:10E2E0003D44756D702052414D00563D73686F7707
:10E2F00020696E7465727275707420566563746FF0
:10E30000727300593D506F727420626C696E6B00BD
:10E310002A0011241FBECFEFD1E2DEBFCDBF01E046
:10E320000CBF12E0A0E0B2E0EEE1FDEF03E00BBFB6
:10E3300002C007900D92A030B107D9F712E0A0E01B
:10E34000B2E001C01D92AE30B107E1F70F9460F367
:10E350000D948DFE01E20EBF0FEF0DBF11241FBE05
:10E360000D9460F30D9400F020E030E040ED57E0B4
:10E3700005C0FA013197F1F72F5F3F4F2817390792
:10E38000C0F308959C01260F311DC901A0E0B0E043
:10E390002F5F3F4FABBFFC018791882361F08093D3
:10E3A000C6008091C00086FFFCCF8091C0008064D1
:10E3B0008093C000EACF08958DE08093C6008091DD
:10E3C000C00086FFFCCF8091C00080648093C000B5
:10E3D0008AE08093C6008091C00086FFFCCF8091C8
:10E3E000C00080648093C00008950F94C2F10F9420
:10E3F000DCF10895FC019081992359F09093C600B7
:10E400008091C00086FFFCCF8091C0008064809323
:10E41000C0003196992379F70895282F982F929567
:10E420009F70892F805D8A3308F0895F8093C600D2
:10E430008091C00086FFFCCF8091C00080648093F3
:10E44000C000822F8F70982F905D9A3308F0995FEB
:10E450009093C6008091C00086FFFCCF8091C000E1
:10E4600080648093C00008959C01FB01853691056E
:10E470001CF46330710594F0C90164E670E00F94F8
:10E480002EFE605D7F4F6093C6008091C00086FFC6
:10E49000FCCF8091C00080648093C0002B30310598
:10E4A00014F43297B4F0C90164E670E00F942EFEC4
:10E4B0006AE070E00F942EFE605D7F4F6093C600AF
:10E4C0008091C00086FFFCCF8091C0008064809363
:10E4D000C000C9016AE070E00F942EFEC0968093E0
:10E4E000C6008091C00086FFFCCF8091C000806490
:10E4F0008093C00008951F93182F8EE692EE60E07F
:10E500000F94C2F11093C6008091C00086FFFCCF2B
:10E510008091C00080648093C0000F94DCF11F9153
:10E5200008952F923F924F925F926F927F928F92B7
:10E530009F92AF92BF92CF92DF92EF92FF920F9392
:10E540001F93DF93CF93CDB7DEB762970FB6F894E2
:10E55000DEBF0FBECDBF382E622ECA01DB015C01CB
:10E560006D01772420E2222E2E010894411C511CBB
:10E570008BC081E0A81680E0B80681E0C80680E084
:10E58000D80628F0C601AA27BB270F940DF2BB2797
:10E59000AD2D9C2D8B2D0F940DF28A2D0F940DF225
:10E5A0002092C6008091C00086FFFCCF8091C00001
:10E5B00080648093C0009DE29093C6008091C0006B
:10E5C00086FFFCCF8091C00080648093C0002092C1
:10E5D000C6008091C00086FFFCCF8091C00080649F
:10E5E0008093C00019828601750188249924A1E0D6
:10E5F0003A1651F03A1620F0B2E03B1661F409C029
:10E600000BBFF701779007C0C7010F9477FE782EF4
:10E6100002C0F7017080872D0F940DF22092C60082
:10E620008091C00086FFFCCF8091C0008064809301
:10E63000C000872D8052F401EF70F0708F3520F408
:10E64000E40DF51D708204C0E40DF51D8EE280839B
:10E650000894E11CF11C011D111D0894811C911CE2
:10E6600090E18916910409F0C2CF80E190E0A0E02A
:10E67000B0E0A80EB91ECA1EDB1E198AC2010F9493
:10E68000FAF10F94DCF16A94662009F072CF629679
:10E690000FB6F894DEBF0FBECDBFCF91DF911F91B3
:10E6A0000F91FF90EF90DF90CF90BF90AF909F9031
:10E6B0008F907F906F905F904F903F902F90089534
:10E6C0002F923F924F925F926F927F928F929F9282
:10E6D000AF92BF92CF92DF92EF92FF920F931F9370
:10E6E000DF93CF93CDB7DEB7CD53D1400FB6F894BB
:10E6F000DEBF0FBECDBF01E20EBF0FEF0DBF94B75F
:10E70000F894A89514BE80916000886180936000A1
:10E7100010926000789493FF05C0E0910002F091A0
:10E7200001021995279A2F9A8091C00082608093E8
:10E73000C00080E18093C40088E18093C1000000A4
:10E74000EE24FF24870144E0A42EB12CCC24DD2448
:10E7500024C0C5010197F1F70894E11CF11C011DCB
:10E76000111D21E2E2162EE4F20620E0020720E06D
:10E77000120718F031E0C32ED12CC801B70127ECE5
:10E780003BE140E050E00F9441FE611571058105C9
:10E79000910519F485B1805885B98091C00087FD35
:10E7A00003C0C114D104A9F2A6014F5F5F4FC25E3E
:10E7B000DE4F59834883CE51D140C25EDE4F8881FF
:10E7C0009981CE51D140019711F00D9410FEC05D9A
:10E7D000DE4F19821882C053D14060E0C15DDE4F28
:10E7E0001882CF52D14088249924C35DDE4F19820C
:10E7F0001882CD52D140C05EDE4F188219821A8233
:10E800001B82C052D140CE5CDE4F188219821A8220
:10E810001B82C253D140EE24FF2487010BBFF701B6
